S00E00004B65797061642E73726563B8
S11300000C942A000C9434000C9434000C943400A6
S11300100C9434000C9434000C9434000C9434008C
S11300200C9434000C9434000C9434000C9434007C
S11300300C9434000C9434000C9434000C9434006C
S11300400C9434000C9434000C9434000C9434005C
S11300500C94340011241FBECFE5D8E0DEBFCDBF21
S11300600E9459000C94ED010C94000092B321E01D
S113007030E002C0220F331F8A95E2F7292B22BBFE
S1130080089592B321E030E002C0220F331F8A9515
S1130090E2F72095292322BB089520B330E0A9017B
S11300A002C0559547958A95E2F7CA018170992750
S11300B0089581B3876081BB8AB38FEF8ABBBB2469
S11300C0B3946894CC24C1F80F2EF3E0DF2EF02D06
S11300D06894EE24E2F80F2EF5E0FF2EF02D06E0F2
S11300E017E0D8E0C9E082B3876082BB84E090E087
S11300F00E944D00892B09F457C080E090E00E94D3
S1130100360081E090E00E94410082E090E00E948D
S1130110410084E090E00E944D00892B11F01BBA4D
S1130120DBBA2FEF81EE94E0215080409040E1F75C
S113013000C0000081E090E00E94360080E090E082
S11301400E94410082E090E00E94410084E090E03F
S11301500E944D00892B11F01BBACBBA2FEF81EE10
S113016094E0215080409040E1F700C0000082E01C
S113017090E00E94360081E090E00E94410080E01F
S113018090E00E94410084E090E00E944D00892BA1
S113019011F01BBABBBA2FEF81EE94E021508040DE
S11301A09040E1F700C0000085E090E00E944D001F
S11301B0892B09F457C080E090E00E94360081E06A
S11301C090E00E94410082E090E00E94410085E0BE
S11301D090E00E944D00892B11F01BBA0BBB2FEF4E
S11301E081EE94E0215080409040E1F700C000008F
S11301F081E090E00E94360080E090E00E9441009F
S113020082E090E00E94410085E090E00E944D0071
S1130210892B11F01BBAFBBA2FEF81EE94E0215029
S113022080409040E1F700C0000082E090E00E942E
S1130230360081E090E00E94410080E090E00E945E
S1130240410085E090E00E944D00892B11F01BBA1B
S1130250EBBA2FEF81EE94E0215080409040E1F71B
S113026000C0000086E090E00E944D00892B09F454
S113027057C080E090E00E94360081E090E00E9448
S1130280410082E090E00E94410086E090E00E94FC
S11302904D00892B11F01BBACBBB2FEF81EE94E0FC
S11302A0215080409040E1F700C0000081E090E0E0
S11302B00E94360080E090E00E94410082E090E0DD
S11302C00E94410086E090E00E944D00892B11F0CD
S11302D01BBADBBB2FEF81EE94E0215080409040AD
S11302E0E1F700C0000082E090E00E94360081E067
S11302F090E00E94410080E090E00E94410086E08E
S113030090E00E944D00892B11F01BBA1BBB2FEF0C
S113031081EE94E0215080409040E1F700C000005D
S113032087E090E00E944D00892B09F4DCCE80E048
S113033090E00E94360081E090E00E94410082E05B
S113034090E00E94410087E090E00E944D00892BDC
S113035011F08FE08BBB2FEF81EE94E021508040B1
S11303609040E1F700C0000081E090E00E94360078
S113037080E090E00E94410082E090E00E94410011
S113038087E090E00E944D00892B09F01BBA2FEF03
S113039081EE94E0215080409040E1F700C00000DD
S11303A082E090E00E94360081E090E00E944100EB
S11303B080E090E00E94410087E090E00E944D00C0
S11303C0892B09F01BBA2FEF81EE94E02150804075
S11103D09040E1F700C0000084CEF894FFCF07
S9030000FC
